{
  "abi": [
    {
      "type": "constructor",
      "inputs": [
        {
          "name": "_timelock",
          "type": "address",
          "internalType": "address"
        }
      ],
      "stateMutability": "nonpayable"
    },
    {
      "type": "function",
      "name": "TIMELOCK",
      "inputs": [],
      "outputs": [
        {
          "name": "",
          "type": "address",
          "internalType": "address"
        }
      ],
      "stateMutability": "view"
    },
    {
      "type": "function",
      "name": "addPair",
      "inputs": [
        {
          "name": "tokenIn",
          "type": "address",
          "internalType": "address"
        },
        {
          "name": "tokenOut",
          "type": "address",
          "internalType": "address"
        }
      ],
      "outputs": [],
      "stateMutability": "nonpayable"
    },
    {
      "type": "function",
      "name": "getAllWhitelistedPairs",
      "inputs": [],
      "outputs": [
        {
          "name": "pairs",
          "type": "tuple[]",
          "internalType": "struct PairWhitelist.Pair[]",
          "components": [
            {
              "name": "tokenIn",
              "type": "address",
              "internalType": "address"
            },
            {
              "name": "tokenOut",
              "type": "address",
              "internalType": "address"
            }
          ]
        }
      ],
      "stateMutability": "view"
    },
    {
      "type": "function",
      "name": "isPairWhitelisted",
      "inputs": [
        {
          "name": "tokenIn",
          "type": "address",
          "internalType": "address"
        },
        {
          "name": "tokenOut",
          "type": "address",
          "internalType": "address"
        }
      ],
      "outputs": [
        {
          "name": "",
          "type": "bool",
          "internalType": "bool"
        }
      ],
      "stateMutability": "view"
    },
    {
      "type": "function",
      "name": "removePair",
      "inputs": [
        {
          "name": "tokenIn",
          "type": "address",
          "internalType": "address"
        },
        {
          "name": "tokenOut",
          "type": "address",
          "internalType": "address"
        }
      ],
      "outputs": [],
      "stateMutability": "nonpayable"
    },
    {
      "type": "event",
      "name": "PairAdded",
      "inputs": [
        {
          "name": "tokenIn",
          "type": "address",
          "indexed": true,
          "internalType": "address"
        },
        {
          "name": "tokenOut",
          "type": "address",
          "indexed": true,
          "internalType": "address"
        }
      ],
      "anonymous": false
    },
    {
      "type": "event",
      "name": "PairRemoved",
      "inputs": [
        {
          "name": "tokenIn",
          "type": "address",
          "indexed": true,
          "internalType": "address"
        },
        {
          "name": "tokenOut",
          "type": "address",
          "indexed": true,
          "internalType": "address"
        }
      ],
      "anonymous": false
    }
  ],
  "bytecode": {
    "object": "0x60a03460b757601f61095138819003918201601f19168301916001600160401b0383118484101760bb5780849260209460405283398101031260b757516001600160a01b03811680820360b7571560725760805260405161088190816100d0823960805181818161042b01526107d60152f35b60405162461bcd60e51b815260206004820152601f60248201527f5061697257686974656c6973743a20696e76616c69642074696d656c6f636b006044820152606490fd5b5f80fd5b634e487b7160e01b5f52604160045260245ffdfe604060808152600480361015610013575f80fd5b5f3560e01c9081635861b2271461045a5781637aadef8b14610417578163828bd5e9146102c6578163b6f3e0871461008d575063c5924e9d14610054575f80fd5b34610089578060031936011261008957602090610080610072610691565b61007a6106a7565b90610769565b90519015158152f35b5f80fd5b9050346100895781600319360112610089576100a7610691565b6100af6106a7565b926100b86107d4565b6001600160a01b0391808316801515806102bb575b15610278578386169081811461023557101561022d5782905b1692835f526020925f845280835f20961695865f52845260ff835f2054166101eb57845f525f8452825f20865f528452825f20916001928360ff1982541617905561012f610709565b91868352858301928884528454680100000000000000008110156101d857808661015b920187556106bd565b9390936101c657508185915116926bffffffffffffffffffffffff60a01b938482541617815501925116908254161790555491835f5260028152815f2090855f52525f20557fc26cc79589f7c5b1fb18650002371abf239e6083ab356e4179c11da5185611ec5f80a3005b5f90634e487b7160e01b82525260245ffd5b604184634e487b7160e01b5f525260245ffd5b5082606492519162461bcd60e51b8352820152601c60248201527f5061697257686974656c6973743a20616c7265616479206164646564000000006044820152fd5b9382906100e6565b835162461bcd60e51b8152602081880152601960248201527f5061697257686974656c6973743a2073616d6520746f6b656e000000000000006044820152606490fd5b825162461bcd60e51b8152602081870152601c60248201527f5061697257686974656c6973743a20696e76616c696420746f6b656e000000006044820152606490fd5b5083861615156100cd565b905034610089575f36600319011261008957601f916001906001546102ea8161073d565b938251948619968791011685019085821067ffffffffffffffff831117610404575082959493955280835261031e8161073d565b602094015f5b8181106103df5750505f5b81811061038e5750508051938385948501908086528451809252808487019501935f905b8382106103605787870388f35b855180516001600160a01b039081168952908401511687840152889750958601959482019490840190610353565b948561039c829596976106bd565b508054908301546001600160a01b0391821691166103b8610709565b918252888201526103c98288610755565b526103d48187610755565b50019493929461032f565b94809694956103ec610709565b5f81525f838201528282890101520195949395610324565b604190634e487b7160e01b5f525260245ffd5b8234610089575f36600319011261008957517f00000000000000000000000000000000000000000000000000000000000000006001600160a01b03168152602090f35b8234610089578060031936011261008957610473610691565b61047b6106a7565b916104846107d4565b6001600160a01b039183831681841610156106895782905b1691825f526020905f825280835f20951694855f52825260ff835f2054161561064657835f525f8252825f20855f528252825f2060ff198154169055835f5260028252825f20855f528252825f205480610519575b85857fcfacf9d602eaae62e56c577b2340ef89b971ff33287fa964a1d17027e8ea2d425f80a3005b5f199080820181811161063357600193845484810190811161062057808303610598575b5050505081548015610585570190610554826106bd565b9790976101c657505f8188828098999a550155558383526002815281832090858452528120558190838080806104f1565b603188634e487b7160e01b5f525260245ffd5b6105a46105ab916106bd565b50926106bd565b61060e578281036105db575b50808254165f526002865284875f20920154165f528452845f20558780808061053d565b8582845416916bffffffffffffffffffffffff60a01b92838254161781550190828785015416908254161790558a6105b7565b5f8b634e487b7160e01b82525260245ffd5b60118b634e487b7160e01b5f525260245ffd5b601189634e487b7160e01b5f525260245ffd5b825162461bcd60e51b8152808701839052601a60248201527f5061697257686974656c6973743a206e6f742070726573656e740000000000006044820152606490fd5b92829061049c565b600435906001600160a01b038216820361008957565b602435906001600160a01b038216820361008957565b6001548110156106f55760015f5260011b7fb10e2d527612073b26eecdfd717e6a320cf44b4afac2b0732d9fcbe2b7fa0cf601905f90565b634e487b7160e01b5f52603260045260245ffd5b604051906040820182811067ffffffffffffffff82111761072957604052565b634e487b7160e01b5f52604160045260245ffd5b67ffffffffffffffff81116107295760051b60200190565b80518210156106f55760209160051b010190565b6001600160a01b039082821681831680821480156107cc575b80156107c4575b6107bb5710156107b35781905b165f525f60205260405f2091165f5260205260ff60405f20541690565b918190610796565b50505050505f90565b508115610789565b508015610782565b7f00000000000000000000000000000000000000000000000000000000000000006001600160a01b0316330361080657565b60405162461bcd60e51b815260206004820152601c60248201527f5061697257686974656c6973743a206f6e6c792054696d656c6f636b000000006044820152606490fdfea2646970667358221220a1ae50c480658b9809ba7c1f5fb09a86c855358562f3567f36d73ba6ed875c8964736f6c63430008190033",
    "linkReferences": {}
  },
  "methodIdentifiers": {
    "TIMELOCK()": "7aadef8b",
    "addPair(address,address)": "b6f3e087",
    "getAllWhitelistedPairs()": "828bd5e9",
    "isPairWhitelisted(address,address)": "c5924e9d",
    "removePair(address,address)": "5861b227"
  },
  "id": 43
}