{
  "abi": [
    {
      "type": "constructor",
      "inputs": [
        {
          "name": "_htkToken",
          "type": "address",
          "internalType": "address"
        },
        {
          "name": "_saucerswapRouter",
          "type": "address",
          "internalType": "address"
        },
        {
          "name": "_admin",
          "type": "address",
          "internalType": "address"
        },
        {
          "name": "_relay",
          "type": "address",
          "internalType": "address"
        }
      ],
      "stateMutability": "nonpayable"
    },
    {
      "type": "function",
      "name": "DAO_ROLE",
      "inputs": [],
      "outputs": [
        {
          "name": "",
          "type": "bytes32",
          "internalType": "bytes32"
        }
      ],
      "stateMutability": "view"
    },
    {
      "type": "function",
      "name": "DEFAULT_ADMIN_ROLE",
      "inputs": [],
      "outputs": [
        {
          "name": "",
          "type": "bytes32",
          "internalType": "bytes32"
        }
      ],
      "stateMutability": "view"
    },
    {
      "type": "function",
      "name": "HTK_TOKEN",
      "inputs": [],
      "outputs": [
        {
          "name": "",
          "type": "address",
          "internalType": "address"
        }
      ],
      "stateMutability": "view"
    },
    {
      "type": "function",
      "name": "RELAY_ROLE",
      "inputs": [],
      "outputs": [
        {
          "name": "",
          "type": "bytes32",
          "internalType": "bytes32"
        }
      ],
      "stateMutability": "view"
    },
    {
      "type": "function",
      "name": "SAUCERSWAP_ROUTER",
      "inputs": [],
      "outputs": [
        {
          "name": "",
          "type": "address",
          "internalType": "contract ISaucerswapRouter"
        }
      ],
      "stateMutability": "view"
    },
    {
      "type": "function",
      "name": "deposit",
      "inputs": [
        {
          "name": "token",
          "type": "address",
          "internalType": "address"
        },
        {
          "name": "amount",
          "type": "uint256",
          "internalType": "uint256"
        }
      ],
      "outputs": [],
      "stateMutability": "nonpayable"
    },
    {
      "type": "function",
      "name": "executeBuybackAndBurn",
      "inputs": [
        {
          "name": "tokenIn",
          "type": "address",
          "internalType": "address"
        },
        {
          "name": "amountIn",
          "type": "uint256",
          "internalType": "uint256"
        },
        {
          "name": "amountOutMin",
          "type": "uint256",
          "internalType": "uint256"
        },
        {
          "name": "deadline",
          "type": "uint256",
          "internalType": "uint256"
        }
      ],
      "outputs": [
        {
          "name": "burnedAmount",
          "type": "uint256",
          "internalType": "uint256"
        }
      ],
      "stateMutability": "nonpayable"
    },
    {
      "type": "function",
      "name": "executeSwap",
      "inputs": [
        {
          "name": "tokenIn",
          "type": "address",
          "internalType": "address"
        },
        {
          "name": "tokenOut",
          "type": "address",
          "internalType": "address"
        },
        {
          "name": "amountIn",
          "type": "uint256",
          "internalType": "uint256"
        },
        {
          "name": "amountOutMin",
          "type": "uint256",
          "internalType": "uint256"
        },
        {
          "name": "deadline",
          "type": "uint256",
          "internalType": "uint256"
        }
      ],
      "outputs": [
        {
          "name": "amountReceived",
          "type": "uint256",
          "internalType": "uint256"
        }
      ],
      "stateMutability": "nonpayable"
    },
    {
      "type": "function",
      "name": "getBalance",
      "inputs": [
        {
          "name": "token",
          "type": "address",
          "internalType": "address"
        }
      ],
      "outputs": [
        {
          "name": "",
          "type": "uint256",
          "internalType": "uint256"
        }
      ],
      "stateMutability": "view"
    },
    {
      "type": "function",
      "name": "getRoleAdmin",
      "inputs": [
        {
          "name": "role",
          "type": "bytes32",
          "internalType": "bytes32"
        }
      ],
      "outputs": [
        {
          "name": "",
          "type": "bytes32",
          "internalType": "bytes32"
        }
      ],
      "stateMutability": "view"
    },
    {
      "type": "function",
      "name": "grantRole",
      "inputs": [
        {
          "name": "role",
          "type": "bytes32",
          "internalType": "bytes32"
        },
        {
          "name": "account",
          "type": "address",
          "internalType": "address"
        }
      ],
      "outputs": [],
      "stateMutability": "nonpayable"
    },
    {
      "type": "function",
      "name": "hasRole",
      "inputs": [
        {
          "name": "role",
          "type": "bytes32",
          "internalType": "bytes32"
        },
        {
          "name": "account",
          "type": "address",
          "internalType": "address"
        }
      ],
      "outputs": [
        {
          "name": "",
          "type": "bool",
          "internalType": "bool"
        }
      ],
      "stateMutability": "view"
    },
    {
      "type": "function",
      "name": "renounceRole",
      "inputs": [
        {
          "name": "role",
          "type": "bytes32",
          "internalType": "bytes32"
        },
        {
          "name": "callerConfirmation",
          "type": "address",
          "internalType": "address"
        }
      ],
      "outputs": [],
      "stateMutability": "nonpayable"
    },
    {
      "type": "function",
      "name": "revokeRole",
      "inputs": [
        {
          "name": "role",
          "type": "bytes32",
          "internalType": "bytes32"
        },
        {
          "name": "account",
          "type": "address",
          "internalType": "address"
        }
      ],
      "outputs": [],
      "stateMutability": "nonpayable"
    },
    {
      "type": "function",
      "name": "supportsInterface",
      "inputs": [
        {
          "name": "interfaceId",
          "type": "bytes4",
          "internalType": "bytes4"
        }
      ],
      "outputs": [
        {
          "name": "",
          "type": "bool",
          "internalType": "bool"
        }
      ],
      "stateMutability": "view"
    },
    {
      "type": "function",
      "name": "updateRelay",
      "inputs": [
        {
          "name": "oldRelay",
          "type": "address",
          "internalType": "address"
        },
        {
          "name": "newRelay",
          "type": "address",
          "internalType": "address"
        }
      ],
      "outputs": [],
      "stateMutability": "nonpayable"
    },
    {
      "type": "function",
      "name": "withdraw",
      "inputs": [
        {
          "name": "token",
          "type": "address",
          "internalType": "address"
        },
        {
          "name": "recipient",
          "type": "address",
          "internalType": "address"
        },
        {
          "name": "amount",
          "type": "uint256",
          "internalType": "uint256"
        }
      ],
      "outputs": [],
      "stateMutability": "nonpayable"
    },
    {
      "type": "event",
      "name": "Burned",
      "inputs": [
        {
          "name": "amount",
          "type": "uint256",
          "indexed": false,
          "internalType": "uint256"
        },
        {
          "name": "initiator",
          "type": "address",
          "indexed": true,
          "internalType": "address"
        },
        {
          "name": "timestamp",
          "type": "uint256",
          "indexed": false,
          "internalType": "uint256"
        }
      ],
      "anonymous": false
    },
    {
      "type": "event",
      "name": "BuybackExecuted",
      "inputs": [
        {
          "name": "tokenIn",
          "type": "address",
          "indexed": true,
          "internalType": "address"
        },
        {
          "name": "amountIn",
          "type": "uint256",
          "indexed": false,
          "internalType": "uint256"
        },
        {
          "name": "htkReceived",
          "type": "uint256",
          "indexed": false,
          "internalType": "uint256"
        },
        {
          "name": "initiator",
          "type": "address",
          "indexed": true,
          "internalType": "address"
        },
        {
          "name": "timestamp",
          "type": "uint256",
          "indexed": false,
          "internalType": "uint256"
        }
      ],
      "anonymous": false
    },
    {
      "type": "event",
      "name": "Deposited",
      "inputs": [
        {
          "name": "token",
          "type": "address",
          "indexed": true,
          "internalType": "address"
        },
        {
          "name": "depositor",
          "type": "address",
          "indexed": true,
          "internalType": "address"
        },
        {
          "name": "amount",
          "type": "uint256",
          "indexed": false,
          "internalType": "uint256"
        },
        {
          "name": "timestamp",
          "type": "uint256",
          "indexed": false,
          "internalType": "uint256"
        }
      ],
      "anonymous": false
    },
    {
      "type": "event",
      "name": "RelayUpdated",
      "inputs": [
        {
          "name": "oldRelay",
          "type": "address",
          "indexed": true,
          "internalType": "address"
        },
        {
          "name": "newRelay",
          "type": "address",
          "indexed": true,
          "internalType": "address"
        },
        {
          "name": "timestamp",
          "type": "uint256",
          "indexed": false,
          "internalType": "uint256"
        }
      ],
      "anonymous": false
    },
    {
      "type": "event",
      "name": "RoleAdminChanged",
      "inputs": [
        {
          "name": "role",
          "type": "bytes32",
          "indexed": true,
          "internalType": "bytes32"
        },
        {
          "name": "previousAdminRole",
          "type": "bytes32",
          "indexed": true,
          "internalType": "bytes32"
        },
        {
          "name": "newAdminRole",
          "type": "bytes32",
          "indexed": true,
          "internalType": "bytes32"
        }
      ],
      "anonymous": false
    },
    {
      "type": "event",
      "name": "RoleGranted",
      "inputs": [
        {
          "name": "role",
          "type": "bytes32",
          "indexed": true,
          "internalType": "bytes32"
        },
        {
          "name": "account",
          "type": "address",
          "indexed": true,
          "internalType": "address"
        },
        {
          "name": "sender",
          "type": "address",
          "indexed": true,
          "internalType": "address"
        }
      ],
      "anonymous": false
    },
    {
      "type": "event",
      "name": "RoleRevoked",
      "inputs": [
        {
          "name": "role",
          "type": "bytes32",
          "indexed": true,
          "internalType": "bytes32"
        },
        {
          "name": "account",
          "type": "address",
          "indexed": true,
          "internalType": "address"
        },
        {
          "name": "sender",
          "type": "address",
          "indexed": true,
          "internalType": "address"
        }
      ],
      "anonymous": false
    },
    {
      "type": "event",
      "name": "SwapExecuted",
      "inputs": [
        {
          "name": "tokenIn",
          "type": "address",
          "indexed": true,
          "internalType": "address"
        },
        {
          "name": "tokenOut",
          "type": "address",
          "indexed": true,
          "internalType": "address"
        },
        {
          "name": "amountIn",
          "type": "uint256",
          "indexed": false,
          "internalType": "uint256"
        },
        {
          "name": "amountOut",
          "type": "uint256",
          "indexed": false,
          "internalType": "uint256"
        },
        {
          "name": "initiator",
          "type": "address",
          "indexed": true,
          "internalType": "address"
        },
        {
          "name": "timestamp",
          "type": "uint256",
          "indexed": false,
          "internalType": "uint256"
        }
      ],
      "anonymous": false
    },
    {
      "type": "event",
      "name": "Withdrawn",
      "inputs": [
        {
          "name": "token",
          "type": "address",
          "indexed": true,
          "internalType": "address"
        },
        {
          "name": "recipient",
          "type": "address",
          "indexed": true,
          "internalType": "address"
        },
        {
          "name": "amount",
          "type": "uint256",
          "indexed": false,
          "internalType": "uint256"
        },
        {
          "name": "initiator",
          "type": "address",
          "indexed": true,
          "internalType": "address"
        },
        {
          "name": "timestamp",
          "type": "uint256",
          "indexed": false,
          "internalType": "uint256"
        }
      ],
      "anonymous": false
    },
    {
      "type": "error",
      "name": "AccessControlBadConfirmation",
      "inputs": []
    },
    {
      "type": "error",
      "name": "AccessControlUnauthorizedAccount",
      "inputs": [
        {
          "name": "account",
          "type": "address",
          "internalType": "address"
        },
        {
          "name": "neededRole",
          "type": "bytes32",
          "internalType": "bytes32"
        }
      ]
    },
    {
      "type": "error",
      "name": "ReentrancyGuardReentrantCall",
      "inputs": []
    },
    {
      "type": "error",
      "name": "SafeERC20FailedOperation",
      "inputs": [
        {
          "name": "token",
          "type": "address",
          "internalType": "address"
        }
      ]
    }
  ],
  "bytecode": {
    "object": "0x60c03461022557601f611b1438819003918201601f191683019291906001600160401b038411838510176102295781608092849260409687528339810103126102255761004b8161023d565b906100586020820161023d565b61006f606061006886850161023d565b930161023d565b60017f9b779b17422d0df92223018b32b4d1fa46e071723d6817e2486d003becc55f0055926001600160a01b0391828216156101e157821691821561019d5780841615610159578416156101155760805260a0526100e191906100db906100d581610251565b506102bd565b5061035b565b50516116e090816103f482396080518181816104e60152610f84015260a05181818160ee015281816105600152610a0c0152f35b845162461bcd60e51b815260206004820152601760248201527f54726561737572793a20496e76616c69642072656c61790000000000000000006044820152606490fd5b855162461bcd60e51b815260206004820152601760248201527f54726561737572793a20496e76616c69642061646d696e0000000000000000006044820152606490fd5b855162461bcd60e51b815260206004820152601860248201527f54726561737572793a20496e76616c696420726f7574657200000000000000006044820152606490fd5b855162461bcd60e51b815260206004820152601b60248201527f54726561737572793a20496e76616c69642048544b20746f6b656e00000000006044820152606490fd5b5f80fd5b634e487b7160e01b5f52604160045260245ffd5b51906001600160a01b038216820361022557565b6001600160a01b03165f8181525f80516020611af4833981519152602052604090205460ff166102b8575f8181525f80516020611af483398151915260205260408120805460ff191660011790553391905f80516020611ad48339815191528180a4600190565b505f90565b6001600160a01b03165f8181527fc39f11a9300b508470eaed31f5842ba08c93181bcbe6a7fe34039aa7f2b8074260205260409020547f3b5d4cc60d3ec3516ee8ae083bd60934f6eb2a6c54b1229985c41bfb092b2603919060ff1661035557815f525f60205260405f20815f5260205260405f20600160ff1982541617905533915f80516020611ad48339815191525f80a4600190565b50505f90565b6001600160a01b03165f8181527f8a82f9e0504fbbd4e27d52a5bf0121b2797f48988a09544f7c17949deb596bc460205260409020547f077a1d526a4ce8a773632ab13b4fbbf1fcc954c3dab26cd27ea0e2a6750da5d7919060ff1661035557815f525f60205260405f20815f5260205260405f20600160ff1982541617905533915f80516020611ad48339815191525f80a460019056fe6080604090808252600480361015610015575f80fd5b5f3560e01c91826301ffc9a714611003575081630442182314610fdc578163248a9ca314610fb357816327b57cdd14610f705781632f2ff15d14610f4857816336568abe14610f04578163382ed85314610dcf57816347e7ef2414610cde57816376eb8964146109525781638b1650a21461049557816391d1485414610452578163a217fddf14610438578163d547741f146103fd578163d9caed12146101ea578163e9c26518146101b0578163f8b2cb4f14610121575063fb5a252d146100db575f80fd5b3461011d575f36600319011261011d57517f00000000000000000000000000000000000000000000000000000000000000006001600160a01b03168152602090f35b5f80fd5b90503461011d576020918260031936011261011d57826001600160a01b0361014761106b565b169260248351809581936370a0823160e01b835230908301525afa9182156101a6575f92610177575b5051908152f35b9091508281813d831161019f575b61018f818361118d565b8101031261011d5751905f610170565b503d610185565b50513d5f823e3d90fd5b823461011d575f36600319011261011d57602090517f3b5d4cc60d3ec3516ee8ae083bd60934f6eb2a6c54b1229985c41bfb092b26038152f35b90503461011d57606036600319011261011d5761020561106b565b9161020e611055565b90604435937f3b5d4cc60d3ec3516ee8ae083bd60934f6eb2a6c54b1229985c41bfb092b260390815f526020915f8352835f20335f52835260ff845f205416156103df575061025b61163b565b6001600160a01b0390811693610272851515611081565b1693841561039e576102858615156110cd565b82516370a0823160e01b815230828201528281602481885afa80156103945787905f90610363575b6102b9925010156111af565b82519063a9059cbb60e01b5f5285815286602452825f60448180895af160015f5114811615610344575b82855215610330575050907fbaea51c8984e73dc5c9280aaa4fa5acae97ec9bb4ab751976d63c7ae2cf011da91815195865242908601523394a460015f8051602061168b83398151915255005b635274afe760e01b82528101849052602490fd5b600181151661035a57853b15153d1516166102e3565b823d5f823e3d90fd5b50508281813d831161038d575b61037a818361118d565b8101031261011d57866102b991516102ad565b503d610370565b84513d5f823e3d90fd5b915162461bcd60e51b815291820152601b60248201527f54726561737572793a20496e76616c696420726563697069656e7400000000006044820152606490fd5b835163e2517d3f60e01b815233818801526024810191909152604490fd5b823461011d578060031936011261011d5761043691356104316001610420611055565b93835f525f6020525f2001546113fe565b6115c9565b005b823461011d575f36600319011261011d57602090515f8152f35b823461011d578060031936011261011d5760209161046e611055565b90355f525f8352815f209060018060a01b03165f52825260ff815f20541690519015158152f35b90503461011d57608036600319011261011d576104b061106b565b916044359160249060643582356104c5611398565b6104cd61163b565b6001600160a01b039687166104e3811515611081565b877f00000000000000000000000000000000000000000000000000000000000000001692838214610906576105198315156110cd565b61052542821015611111565b86516370a0823160e01b808252308783015260209a90918b818a81885afa80156108ae5786905f906108d5575b61055e925010156111af565b7f00000000000000000000000000000000000000000000000000000000000000001690885163095ea7b360e01b9081815283898201525f8a8201528c816044815f8a5af18015610877576108b8575b5089519081526001600160a01b038316888201908152602081018790528c908290819060400103815f895af180156108ae57610881575b5088516105f08161115d565b6002815289368d8301378461060482611213565b528661060f82611234565b5289519282845230898501528c848b818b5afa93841561087757908c888d8c95945f98610835575b509061065e5f96979899879351988997889687956338ed173960e01b8752309387016112c0565b03925af1801561082b57610809575b508751908152308682015289818881885afa9081156107ff575f916107d0575b506106a49161069b9161132b565b9788101561134c565b85519182526020820187905242604083015233917f3cd631314c9f77a203b841bc3d555b2d95cbfd99e9ba285b5e500101617261ca90606090a3841561078f5783519163a9059cbb60e01b5f5261dead8152858452865f60448180865af160015f5114811615610770575b838652156107615750505050805182815242848201527f7a6396f9141e42bbd82eddb43e30077ef07aaafcd4ee3dfbd6adb1dca8f2445a823392a260015f8051602061168b8339815191525551908152f35b635274afe760e01b8352820152fd5b600181151661078657823b15153d15161661070f565b833d5f823e3d90fd5b50601a6064928685519362461bcd60e51b85528401528201527f54726561737572793a205a65726f206275726e20616d6f756e740000000000006044820152fd5b90508981813d83116107f8575b6107e7818361118d565b8101031261011d57516106a461068d565b503d6107dd565b88513d5f823e3d90fd5b610824903d805f833e61081c818361118d565b810190611244565b505f61066d565b89513d5f823e3d90fd5b9550505050949293508c82813d8311610870575b610853818361118d565b8101031261011d57905191939192918891908c888d61065e610637565b503d610849565b8b513d5f823e3d90fd5b6108a0908c8d3d106108a7575b610898818361118d565b8101906111fb565b505f6105e4565b503d61088e565b8a513d5f823e3d90fd5b6108ce908d803d106108a757610898818361118d565b505f6105ad565b50508b81813d83116108ff575b6108ec818361118d565b8101031261011d578561055e9151610552565b503d6108e2565b865162461bcd60e51b81526020818701526021818801527f54726561737572793a2043616e6e6f7420737761702048544b20666f722048546044820152604b60f81b6064820152608490fd5b823461011d5760a036600319011261011d5761096c61106b565b90610975611055565b6064359260443591608435610988611398565b61099061163b565b6001600160a01b0392831691839083151580610cd3575b6109b090611081565b1692838314610c99576109c48515156110cd565b6109d042831015611111565b8551976370a0823160e01b91828a5230828b01526020998a81602481895afa801561082b5788905f90610c68575b610a0a925010156111af565b7f00000000000000000000000000000000000000000000000000000000000000001692875163095ea7b360e01b9081815285848201525f60248201528b816044815f8b5af180156108ae57610c4b575b5088519081526001600160a01b038516838201908152602081018990528b908290819060400103815f8a5af1801561082b57610c2e575b50875193610a9e8561115d565b6002855288368c87013785610ab286611213565b5286610abd86611234565b5288519484865230848701528b866024818b5afa9586156108ae57908b8b8b94935f99610bf7575b505f94939291610b0c869251978896879586946338ed173960e01b865230928d87016112c0565b03925af180156107ff57610bdd575b50865191825230908201528781602481875afa908115610bd3575f91610ba4575b50610b5391610b4a9161132b565b9586101561134c565b83519283526020830185905242604084015233927fd008db8af2b70a4c666c8f38a2a22e7012653ea543fa986a4ee04a1f7ad8924790606090a460015f8051602061168b8339815191525551908152f35b90508781813d8311610bcc575b610bbb818361118d565b8101031261011d5751610b53610b3c565b503d610bb1565b86513d5f823e3d90fd5b610bf0903d805f833e61081c818361118d565b5089610b1b565b939850505091508b81813d8311610c27575b610c13818361118d565b8101031261011d57519488918b8b5f610ae5565b503d610c09565b610c44908b3d8d116108a757610898818361118d565b508a610a91565b610c61908c8d3d106108a757610898818361118d565b508b610a5a565b50508a81813d8311610c92575b610c7f818361118d565b8101031261011d5787610a0a91516109fe565b503d610c75565b855162461bcd60e51b81526020818a015260146024820152732a3932b0b9bab93c9d1029b0b6b2903a37b5b2b760611b6044820152606490fd5b5080821615156109a7565b90503461011d578160031936011261011d57610cf861106b565b9160243592610d0561163b565b6001600160a01b031691610d1a831515611081565b610d258415156110cd565b8151906323b872dd60e01b5f52338152306024528460445260205f60648180885af160015f5114811615610db9575b8284525f60605215610da5575050807ff5681f9d0db1b911ac18ee83d515a1cf1051853a9eae418316a2fdf7dea427c591519384524260208501523393a360015f8051602061168b83398151915255005b635274afe760e01b82528101839052602490fd5b600181151661035a57843b15153d151616610d54565b90503461011d578160031936011261011d57610de961106b565b91610df2611055565b5f80525f602052815f20335f5260205260ff825f20541615610ee8576001600160a01b0381811694908515610ea557811693858514610e6b575091610e63602092610e5d7f93c8fc8f4dbec7bd8c38f304f82e6632181c9225284b4fae152c7f47a32f9b5595611533565b5061141f565b5051428152a3005b606490602085519162461bcd60e51b8352820152601460248201527354726561737572793a2053616d652072656c617960601b6044820152fd5b835162461bcd60e51b8152602081870152601760248201527f54726561737572793a20496e76616c69642072656c61790000000000000000006044820152606490fd5b815163e2517d3f60e01b815233818501525f6024820152604490fd5b823461011d578060031936011261011d57610f1d611055565b90336001600160a01b03831603610f39575061043691356115c9565b5163334bd91960e11b81529050fd5b823461011d578060031936011261011d576104369135610f6b6001610420611055565b6114bd565b823461011d575f36600319011261011d57517f00000000000000000000000000000000000000000000000000000000000000006001600160a01b03168152602090f35b823461011d57602036600319011261011d57602091355f525f82526001815f2001549051908152f35b823461011d575f36600319011261011d57602090515f8051602061166b8339815191528152f35b903461011d57602036600319011261011d57359063ffffffff60e01b821680920361011d57602091637965db0b60e01b8114908115611044575b5015158152f35b6301ffc9a760e01b1490508361103d565b602435906001600160a01b038216820361011d57565b600435906001600160a01b038216820361011d57565b1561108857565b60405162461bcd60e51b815260206004820152601760248201527f54726561737572793a20496e76616c696420746f6b656e0000000000000000006044820152606490fd5b156110d457565b60405162461bcd60e51b8152602060048201526015602482015274151c99585cdd5c9e4e8816995c9bc8185b5bdd5b9d605a1b6044820152606490fd5b1561111857565b60405162461bcd60e51b815260206004820152601a60248201527f54726561737572793a204578706972656420646561646c696e650000000000006044820152606490fd5b6060810190811067ffffffffffffffff82111761117957604052565b634e487b7160e01b5f52604160045260245ffd5b90601f8019910116810190811067ffffffffffffffff82111761117957604052565b156111b657565b60405162461bcd60e51b815260206004820152601e60248201527f54726561737572793a20496e73756666696369656e742062616c616e636500006044820152606490fd5b9081602091031261011d5751801515810361011d5790565b8051156112205760200190565b634e487b7160e01b5f52603260045260245ffd5b8051600110156112205760400190565b90602090818382031261011d57825167ffffffffffffffff9384821161011d570181601f8201121561011d578051938411611179578360051b906040519461128e8584018761118d565b8552838086019282010192831161011d578301905b8282106112b1575050505090565b815181529083019083016112a3565b9291909594939560a08401908452602091602085015260a060408501528251809152602060c085019301915f5b82811061130e5750505050906080919460018060a01b031660608201520152565b83516001600160a01b0316855293810193928101926001016112ed565b9190820391821161133857565b634e487b7160e01b5f52601160045260245ffd5b1561135357565b60405162461bcd60e51b815260206004820152601d60248201527f54726561737572793a20496e73756666696369656e74206f75747075740000006044820152606490fd5b335f9081527f8a82f9e0504fbbd4e27d52a5bf0121b2797f48988a09544f7c17949deb596bc460205260409020545f8051602061166b8339815191529060ff16156113e05750565b6044906040519063e2517d3f60e01b82523360048301526024820152fd5b805f525f60205260405f20335f5260205260ff60405f205416156113e05750565b6001600160a01b03165f8181527f8a82f9e0504fbbd4e27d52a5bf0121b2797f48988a09544f7c17949deb596bc460205260409020545f8051602061166b833981519152919060ff166114b757815f525f60205260405f20815f5260205260405f20600160ff1982541617905533917f2f8788117e7eff1d82e926ec794901d17c78024a50270940304540a733656f0d5f80a4600190565b50505f90565b90815f525f60205260405f209060018060a01b031690815f5260205260ff60405f205416155f146114b757815f525f60205260405f20815f5260205260405f20600160ff1982541617905533917f2f8788117e7eff1d82e926ec794901d17c78024a50270940304540a733656f0d5f80a4600190565b6001600160a01b03165f8181527f8a82f9e0504fbbd4e27d52a5bf0121b2797f48988a09544f7c17949deb596bc460205260409020545f8051602061166b833981519152919060ff16156114b757815f525f60205260405f20815f5260205260405f2060ff19815416905533917ff6391f5c32d9c69d2a47ea670b442974b53935d1edc7fd64eb21e047a839171b5f80a4600190565b90815f525f60205260405f209060018060a01b031690815f5260205260ff60405f2054165f146114b757815f525f60205260405f20815f5260205260405f2060ff19815416905533917ff6391f5c32d9c69d2a47ea670b442974b53935d1edc7fd64eb21e047a839171b5f80a4600190565b5f8051602061168b83398151915260028154146116585760029055565b604051633ee5aeb560e01b8152600490fdfe077a1d526a4ce8a773632ab13b4fbbf1fcc954c3dab26cd27ea0e2a6750da5d79b779b17422d0df92223018b32b4d1fa46e071723d6817e2486d003becc55f00a26469706673582212204a23bc5a4aad2ab74c3876bd4ebbb2816298404edcc69c54b61d5704a6c33db764736f6c634300081900332f8788117e7eff1d82e926ec794901d17c78024a50270940304540a733656f0dad3228b676f7d3cd4284a5443f17f1962b36e491b30a40b2405849e597ba5fb5",
    "linkReferences": {}
  },
  "methodIdentifiers": {
    "DAO_ROLE()": "e9c26518",
    "DEFAULT_ADMIN_ROLE()": "a217fddf",
    "HTK_TOKEN()": "27b57cdd",
    "RELAY_ROLE()": "04421823",
    "SAUCERSWAP_ROUTER()": "fb5a252d",
    "deposit(address,uint256)": "47e7ef24",
    "executeBuybackAndBurn(address,uint256,uint256,uint256)": "8b1650a2",
    "executeSwap(address,address,uint256,uint256,uint256)": "76eb8964",
    "getBalance(address)": "f8b2cb4f",
    "getRoleAdmin(bytes32)": "248a9ca3",
    "grantRole(bytes32,address)": "2f2ff15d",
    "hasRole(bytes32,address)": "91d14854",
    "renounceRole(bytes32,address)": "36568abe",
    "revokeRole(bytes32,address)": "d547741f",
    "supportsInterface(bytes4)": "01ffc9a7",
    "updateRelay(address,address)": "382ed853",
    "withdraw(address,address,uint256)": "d9caed12"
  },
  "id": 91
}