{
  "abi": [
    {
      "type": "constructor",
      "inputs": [
        {
          "name": "_htkToken",
          "type": "address",
          "internalType": "address"
        },
        {
          "name": "_adapter",
          "type": "address",
          "internalType": "address"
        },
        {
          "name": "_admin",
          "type": "address",
          "internalType": "address"
        },
        {
          "name": "_relay",
          "type": "address",
          "internalType": "address"
        }
      ],
      "stateMutability": "nonpayable"
    },
    {
      "type": "receive",
      "stateMutability": "payable"
    },
    {
      "type": "function",
      "name": "DAO_ROLE",
      "inputs": [],
      "outputs": [
        {
          "name": "",
          "type": "bytes32",
          "internalType": "bytes32"
        }
      ],
      "stateMutability": "view"
    },
    {
      "type": "function",
      "name": "DEFAULT_ADMIN_ROLE",
      "inputs": [],
      "outputs": [
        {
          "name": "",
          "type": "bytes32",
          "internalType": "bytes32"
        }
      ],
      "stateMutability": "view"
    },
    {
      "type": "function",
      "name": "HTK_TOKEN",
      "inputs": [],
      "outputs": [
        {
          "name": "",
          "type": "address",
          "internalType": "address"
        }
      ],
      "stateMutability": "view"
    },
    {
      "type": "function",
      "name": "RELAY_ROLE",
      "inputs": [],
      "outputs": [
        {
          "name": "",
          "type": "bytes32",
          "internalType": "bytes32"
        }
      ],
      "stateMutability": "view"
    },
    {
      "type": "function",
      "name": "adapter",
      "inputs": [],
      "outputs": [
        {
          "name": "",
          "type": "address",
          "internalType": "contract ISwapAdapter"
        }
      ],
      "stateMutability": "view"
    },
    {
      "type": "function",
      "name": "associateTreasuryToToken",
      "inputs": [
        {
          "name": "token",
          "type": "address",
          "internalType": "address"
        }
      ],
      "outputs": [],
      "stateMutability": "nonpayable"
    },
    {
      "type": "function",
      "name": "batchAssociateTreasuryToTokens",
      "inputs": [
        {
          "name": "tokens",
          "type": "address[]",
          "internalType": "address[]"
        }
      ],
      "outputs": [],
      "stateMutability": "nonpayable"
    },
    {
      "type": "function",
      "name": "deposit",
      "inputs": [
        {
          "name": "token",
          "type": "address",
          "internalType": "address"
        },
        {
          "name": "amount",
          "type": "uint256",
          "internalType": "uint256"
        }
      ],
      "outputs": [],
      "stateMutability": "nonpayable"
    },
    {
      "type": "function",
      "name": "executeBuybackAndBurn",
      "inputs": [
        {
          "name": "tokenIn",
          "type": "address",
          "internalType": "address"
        },
        {
          "name": "path",
          "type": "bytes",
          "internalType": "bytes"
        },
        {
          "name": "amountIn",
          "type": "uint256",
          "internalType": "uint256"
        },
        {
          "name": "amountOutMin",
          "type": "uint256",
          "internalType": "uint256"
        },
        {
          "name": "deadline",
          "type": "uint256",
          "internalType": "uint256"
        }
      ],
      "outputs": [
        {
          "name": "burnedAmount",
          "type": "uint256",
          "internalType": "uint256"
        }
      ],
      "stateMutability": "nonpayable"
    },
    {
      "type": "function",
      "name": "executeSwap",
      "inputs": [
        {
          "name": "kind",
          "type": "uint8",
          "internalType": "enum ISwapAdapter.SwapKind"
        },
        {
          "name": "tokenIn",
          "type": "address",
          "internalType": "address"
        },
        {
          "name": "tokenOut",
          "type": "address",
          "internalType": "address"
        },
        {
          "name": "path",
          "type": "bytes",
          "internalType": "bytes"
        },
        {
          "name": "amountIn",
          "type": "uint256",
          "internalType": "uint256"
        },
        {
          "name": "amountOut",
          "type": "uint256",
          "internalType": "uint256"
        },
        {
          "name": "amountOutMin",
          "type": "uint256",
          "internalType": "uint256"
        },
        {
          "name": "deadline",
          "type": "uint256",
          "internalType": "uint256"
        }
      ],
      "outputs": [
        {
          "name": "amountReceived",
          "type": "uint256",
          "internalType": "uint256"
        }
      ],
      "stateMutability": "payable"
    },
    {
      "type": "function",
      "name": "getBalance",
      "inputs": [
        {
          "name": "token",
          "type": "address",
          "internalType": "address"
        }
      ],
      "outputs": [
        {
          "name": "",
          "type": "uint256",
          "internalType": "uint256"
        }
      ],
      "stateMutability": "view"
    },
    {
      "type": "function",
      "name": "getRoleAdmin",
      "inputs": [
        {
          "name": "role",
          "type": "bytes32",
          "internalType": "bytes32"
        }
      ],
      "outputs": [
        {
          "name": "",
          "type": "bytes32",
          "internalType": "bytes32"
        }
      ],
      "stateMutability": "view"
    },
    {
      "type": "function",
      "name": "grantRole",
      "inputs": [
        {
          "name": "role",
          "type": "bytes32",
          "internalType": "bytes32"
        },
        {
          "name": "account",
          "type": "address",
          "internalType": "address"
        }
      ],
      "outputs": [],
      "stateMutability": "nonpayable"
    },
    {
      "type": "function",
      "name": "hasRole",
      "inputs": [
        {
          "name": "role",
          "type": "bytes32",
          "internalType": "bytes32"
        },
        {
          "name": "account",
          "type": "address",
          "internalType": "address"
        }
      ],
      "outputs": [
        {
          "name": "",
          "type": "bool",
          "internalType": "bool"
        }
      ],
      "stateMutability": "view"
    },
    {
      "type": "function",
      "name": "renounceRole",
      "inputs": [
        {
          "name": "role",
          "type": "bytes32",
          "internalType": "bytes32"
        },
        {
          "name": "callerConfirmation",
          "type": "address",
          "internalType": "address"
        }
      ],
      "outputs": [],
      "stateMutability": "nonpayable"
    },
    {
      "type": "function",
      "name": "revokeRole",
      "inputs": [
        {
          "name": "role",
          "type": "bytes32",
          "internalType": "bytes32"
        },
        {
          "name": "account",
          "type": "address",
          "internalType": "address"
        }
      ],
      "outputs": [],
      "stateMutability": "nonpayable"
    },
    {
      "type": "function",
      "name": "setAdapter",
      "inputs": [
        {
          "name": "newAdapter",
          "type": "address",
          "internalType": "address"
        }
      ],
      "outputs": [],
      "stateMutability": "nonpayable"
    },
    {
      "type": "function",
      "name": "supportsInterface",
      "inputs": [
        {
          "name": "interfaceId",
          "type": "bytes4",
          "internalType": "bytes4"
        }
      ],
      "outputs": [
        {
          "name": "",
          "type": "bool",
          "internalType": "bool"
        }
      ],
      "stateMutability": "view"
    },
    {
      "type": "function",
      "name": "updateRelay",
      "inputs": [
        {
          "name": "oldRelay",
          "type": "address",
          "internalType": "address"
        },
        {
          "name": "newRelay",
          "type": "address",
          "internalType": "address"
        }
      ],
      "outputs": [],
      "stateMutability": "nonpayable"
    },
    {
      "type": "function",
      "name": "withdraw",
      "inputs": [
        {
          "name": "token",
          "type": "address",
          "internalType": "address"
        },
        {
          "name": "recipient",
          "type": "address",
          "internalType": "address"
        },
        {
          "name": "amount",
          "type": "uint256",
          "internalType": "uint256"
        }
      ],
      "outputs": [],
      "stateMutability": "nonpayable"
    },
    {
      "type": "event",
      "name": "AdapterUpdated",
      "inputs": [
        {
          "name": "oldAdapter",
          "type": "address",
          "indexed": true,
          "internalType": "address"
        },
        {
          "name": "newAdapter",
          "type": "address",
          "indexed": true,
          "internalType": "address"
        },
        {
          "name": "timestamp",
          "type": "uint256",
          "indexed": false,
          "internalType": "uint256"
        }
      ],
      "anonymous": false
    },
    {
      "type": "event",
      "name": "Burned",
      "inputs": [
        {
          "name": "amount",
          "type": "uint256",
          "indexed": false,
          "internalType": "uint256"
        },
        {
          "name": "initiator",
          "type": "address",
          "indexed": true,
          "internalType": "address"
        },
        {
          "name": "timestamp",
          "type": "uint256",
          "indexed": false,
          "internalType": "uint256"
        }
      ],
      "anonymous": false
    },
    {
      "type": "event",
      "name": "BuybackExecuted",
      "inputs": [
        {
          "name": "tokenIn",
          "type": "address",
          "indexed": true,
          "internalType": "address"
        },
        {
          "name": "amountIn",
          "type": "uint256",
          "indexed": false,
          "internalType": "uint256"
        },
        {
          "name": "htkReceived",
          "type": "uint256",
          "indexed": false,
          "internalType": "uint256"
        },
        {
          "name": "initiator",
          "type": "address",
          "indexed": true,
          "internalType": "address"
        },
        {
          "name": "timestamp",
          "type": "uint256",
          "indexed": false,
          "internalType": "uint256"
        }
      ],
      "anonymous": false
    },
    {
      "type": "event",
      "name": "Deposited",
      "inputs": [
        {
          "name": "token",
          "type": "address",
          "indexed": true,
          "internalType": "address"
        },
        {
          "name": "depositor",
          "type": "address",
          "indexed": true,
          "internalType": "address"
        },
        {
          "name": "amount",
          "type": "uint256",
          "indexed": false,
          "internalType": "uint256"
        },
        {
          "name": "timestamp",
          "type": "uint256",
          "indexed": false,
          "internalType": "uint256"
        }
      ],
      "anonymous": false
    },
    {
      "type": "event",
      "name": "RelayUpdated",
      "inputs": [
        {
          "name": "oldRelay",
          "type": "address",
          "indexed": true,
          "internalType": "address"
        },
        {
          "name": "newRelay",
          "type": "address",
          "indexed": true,
          "internalType": "address"
        },
        {
          "name": "timestamp",
          "type": "uint256",
          "indexed": false,
          "internalType": "uint256"
        }
      ],
      "anonymous": false
    },
    {
      "type": "event",
      "name": "RoleAdminChanged",
      "inputs": [
        {
          "name": "role",
          "type": "bytes32",
          "indexed": true,
          "internalType": "bytes32"
        },
        {
          "name": "previousAdminRole",
          "type": "bytes32",
          "indexed": true,
          "internalType": "bytes32"
        },
        {
          "name": "newAdminRole",
          "type": "bytes32",
          "indexed": true,
          "internalType": "bytes32"
        }
      ],
      "anonymous": false
    },
    {
      "type": "event",
      "name": "RoleGranted",
      "inputs": [
        {
          "name": "role",
          "type": "bytes32",
          "indexed": true,
          "internalType": "bytes32"
        },
        {
          "name": "account",
          "type": "address",
          "indexed": true,
          "internalType": "address"
        },
        {
          "name": "sender",
          "type": "address",
          "indexed": true,
          "internalType": "address"
        }
      ],
      "anonymous": false
    },
    {
      "type": "event",
      "name": "RoleRevoked",
      "inputs": [
        {
          "name": "role",
          "type": "bytes32",
          "indexed": true,
          "internalType": "bytes32"
        },
        {
          "name": "account",
          "type": "address",
          "indexed": true,
          "internalType": "address"
        },
        {
          "name": "sender",
          "type": "address",
          "indexed": true,
          "internalType": "address"
        }
      ],
      "anonymous": false
    },
    {
      "type": "event",
      "name": "SwapExecuted",
      "inputs": [
        {
          "name": "tokenIn",
          "type": "address",
          "indexed": true,
          "internalType": "address"
        },
        {
          "name": "tokenOut",
          "type": "address",
          "indexed": true,
          "internalType": "address"
        },
        {
          "name": "amountIn",
          "type": "uint256",
          "indexed": false,
          "internalType": "uint256"
        },
        {
          "name": "amountOut",
          "type": "uint256",
          "indexed": false,
          "internalType": "uint256"
        },
        {
          "name": "initiator",
          "type": "address",
          "indexed": true,
          "internalType": "address"
        },
        {
          "name": "timestamp",
          "type": "uint256",
          "indexed": false,
          "internalType": "uint256"
        }
      ],
      "anonymous": false
    },
    {
      "type": "event",
      "name": "TreasuryAssociated",
      "inputs": [
        {
          "name": "token",
          "type": "address",
          "indexed": true,
          "internalType": "address"
        }
      ],
      "anonymous": false
    },
    {
      "type": "event",
      "name": "TreasuryBatchAssociated",
      "inputs": [
        {
          "name": "count",
          "type": "uint256",
          "indexed": false,
          "internalType": "uint256"
        }
      ],
      "anonymous": false
    },
    {
      "type": "event",
      "name": "Withdrawn",
      "inputs": [
        {
          "name": "token",
          "type": "address",
          "indexed": true,
          "internalType": "address"
        },
        {
          "name": "recipient",
          "type": "address",
          "indexed": true,
          "internalType": "address"
        },
        {
          "name": "amount",
          "type": "uint256",
          "indexed": false,
          "internalType": "uint256"
        },
        {
          "name": "initiator",
          "type": "address",
          "indexed": true,
          "internalType": "address"
        },
        {
          "name": "timestamp",
          "type": "uint256",
          "indexed": false,
          "internalType": "uint256"
        }
      ],
      "anonymous": false
    },
    {
      "type": "error",
      "name": "AccessControlBadConfirmation",
      "inputs": []
    },
    {
      "type": "error",
      "name": "AccessControlUnauthorizedAccount",
      "inputs": [
        {
          "name": "account",
          "type": "address",
          "internalType": "address"
        },
        {
          "name": "neededRole",
          "type": "bytes32",
          "internalType": "bytes32"
        }
      ]
    },
    {
      "type": "error",
      "name": "ReentrancyGuardReentrantCall",
      "inputs": []
    },
    {
      "type": "error",
      "name": "SafeERC20FailedOperation",
      "inputs": [
        {
          "name": "token",
          "type": "address",
          "internalType": "address"
        }
      ]
    }
  ],
  "bytecode": {
    "object": "0x60a03461021f57601f6125ea38819003918201601f191683019291906001600160401b0384118385101761022357816080928492604096875283398101031261021f5761004b81610237565b9061005860208201610237565b61006f6060610068868501610237565b9301610237565b60017f9b779b17422d0df92223018b32b4d1fa46e071723d6817e2486d003becc55f0055926001600160a01b0391828216156101db57821691821561019757808416156101535784161561010f57608052600180546001600160a01b03191690911790556100f191906100eb906100e58161024b565b506102b7565b50610355565b50516121bc90816103ee82396080518181816106e50152610d110152f35b845162461bcd60e51b815260206004820152601760248201527f54726561737572793a20496e76616c69642072656c61790000000000000000006044820152606490fd5b855162461bcd60e51b815260206004820152601760248201527f54726561737572793a20496e76616c69642061646d696e0000000000000000006044820152606490fd5b855162461bcd60e51b815260206004820152601960248201527f54726561737572793a20496e76616c69642061646170746572000000000000006044820152606490fd5b855162461bcd60e51b815260206004820152601b60248201527f54726561737572793a20496e76616c69642048544b20746f6b656e00000000006044820152606490fd5b5f80fd5b634e487b7160e01b5f52604160045260245ffd5b51906001600160a01b038216820361021f57565b6001600160a01b03165f8181525f805160206125ca833981519152602052604090205460ff166102b2575f8181525f805160206125ca83398151915260205260408120805460ff191660011790553391905f805160206125aa8339815191528180a4600190565b505f90565b6001600160a01b03165f8181527fc39f11a9300b508470eaed31f5842ba08c93181bcbe6a7fe34039aa7f2b8074260205260409020547f3b5d4cc60d3ec3516ee8ae083bd60934f6eb2a6c54b1229985c41bfb092b2603919060ff1661034f57815f525f60205260405f20815f5260205260405f20600160ff1982541617905533915f805160206125aa8339815191525f80a4600190565b50505f90565b6001600160a01b03165f8181527f8a82f9e0504fbbd4e27d52a5bf0121b2797f48988a09544f7c17949deb596bc460205260409020547f077a1d526a4ce8a773632ab13b4fbbf1fcc954c3dab26cd27ea0e2a6750da5d7919060ff1661034f57815f525f60205260405f20815f5260205260405f20600160ff1982541617905533915f805160206125aa8339815191525f80a460019056fe608060409080825260049081361015610022575b5050503615610020575f80fd5b005b5f3560e01c90816301ffc9a714610f2f5750806303eadcfc14610f075780630442182314610ee057806322a6249014610d6a578063248a9ca314610d4057806327b57cdd14610cfd5780632f2ff15d14610cd457806336568abe14610c8f578063382ed85314610b5b57806347e7ef2414610a6b57806391d1485414610a27578063a217fddf14610a0d578063a930b73814610671578063ab1da79c14610573578063d547741f14610539578063d9caed1214610378578063dffb210014610271578063e9c2651814610237578063f83850fd1461019b5763f8b2cb4f1461010a5780610013565b34610186576020918260031936011261018657826001600160a01b0361012e610f97565b169260248351809581936370a0823160e01b835230908301525afa918215610191575f9261015e575b5051908152f35b9091508281813d831161018a575b610176818361104c565b810103126101865751905f610157565b5f80fd5b503d61016c565b50513d5f823e3d90fd5b5090610100366003190112610186578135916006831015610186576101be610f81565b926044356001600160a01b0381168103610186576064359467ffffffffffffffff8611610186576101f761021f94602097369101610fad565b610202949194611c81565b61020a611f06565b60e4359460c4359460a435946084359461158d565b9060015f805160206121478339815191525551908152f35b8234610186575f36600319011261018657602090517f3b5d4cc60d3ec3516ee8ae083bd60934f6eb2a6c54b1229985c41bfb092b26038152f35b5034610186576020366003190112610186576102df6020610290610f97565b610298611c08565b6001600160a01b038116936102ae851515610fdb565b855163248a35ef60e11b8152309181019182526001600160a01b039092166020820152909283918291604090910190565b03815f6101675af190811561036e5790610310915f9161033f575b5060070b60168114908115610336575b50611087565b7fb4e8714fe5d0fa71a867742c95669ce08278972d060286e23b214a21690e90965f80a2005b9050158361030a565b610361915060203d602011610367575b610359818361104c565b81019061106e565b836102fa565b503d61034f565b83513d5f823e3d90fd5b503461018657606036600319011261018657610392610f97565b9161039b610f81565b90604435936103a8611c08565b6103b0611f06565b6001600160a01b03908116926103c78415156110ca565b169283156104f7576103da851515611116565b81516370a0823160e01b81523082820152602091908281602481885afa80156104ed5787905f906104bc575b610412925010156111eb565b82519063a9059cbb60e01b5f5285815286602452825f60448180895af160015f511481161561049d575b82855215610489575050907fbaea51c8984e73dc5c9280aaa4fa5acae97ec9bb4ab751976d63c7ae2cf011da91815195865242908601523394a460015f8051602061214783398151915255005b635274afe760e01b82528101849052602490fd5b60018115166104b357853b15153d15161661043c565b823d5f823e3d90fd5b50508281813d83116104e6575b6104d3818361104c565b8101031261018657866104129151610406565b503d6104c9565b84513d5f823e3d90fd5b6020606492519162461bcd60e51b8352820152601b60248201527f54726561737572793a20496e76616c696420726563697069656e7400000000006044820152fd5b509034610186578060031936011261018657610020913561056e600161055d610f81565b93835f525f6020525f200154611cc9565b611e94565b50346101865760203660031901126101865761058d610f97565b91610596611c08565b6001600160a01b0392831692831561062e57600154908116928385146105f257506001600160a01b0319168317600155514281527f6cda96d6d99267e2e09dc33989e920913295179eee883de7c8f0a8c591b6b24e90602090a3005b606490602084519162461bcd60e51b835282015260166024820152752a3932b0b9bab93c9d1029b0b6b29030b230b83a32b960511b6044820152fd5b815162461bcd60e51b8152602081850152601960248201527f54726561737572793a20496e76616c69642061646170746572000000000000006044820152606490fd5b50346101865760a03660031901126101865761068b610f97565b916024803567ffffffffffffffff8111610186576106ac9036908501610fad565b9190936044359560643596608435976106c3611c81565b6106cb611f06565b6001600160a01b03928316906106e28215156110ca565b837f000000000000000000000000000000000000000000000000000000000000000016938483146109c157610718841515611116565b610724428c101561115a565b61072f8815156111a6565b88516370a0823160e01b815230878201529a60209a8b8d8a81885afa80156109b7578c9d5f91610980575b5090868c949392101561076c906111eb565b60019a838c541661077d9088611f35565b87848d54169061078d9189611fe5565b8685519e8f61079b8161101b565b60028152015236906107ac92611333565b838d01523060608d015260808c01528460a08c015260c08b015f90528460e08c0152826101008c01528854169981519a8b808093633d3b987b60e21b82528a8201906107f79161138f565b03915a905f91f1988915610976575f99610941575b506108199089101561142d565b86519182526020820188905242604083015233917f3cd631314c9f77a203b841bc3d555b2d95cbfd99e9ba285b5e500101617261ca90606090a385156109005784519163a9059cbb60e01b5f5261dead8152868452875f60448180865af1855f51148116156108e2575b838752156108d35750505050815183815242858201527f7a6396f9141e42bbd82eddb43e30077ef07aaafcd4ee3dfbd6adb1dca8f2445a833392a25f805160206121478339815191525551908152f35b635274afe760e01b8352820152fd5b858115166108f757823b15153d151616610883565b833d5f823e3d90fd5b50601a6064928786519362461bcd60e51b85528401528201527f54726561737572793a205a65726f206275726e20616d6f756e740000000000006044820152fd5b61081991995061096690893d8b1161096f575b61095e818361104c565b810190611379565b9050989061080c565b503d610954565b88513d5f823e3d90fd5b8d819594939e92503d83116109b0575b61099a818361104c565b810103126101865791518c9b919291908661075a565b503d610990565b8b513d5f823e3d90fd5b885162461bcd60e51b81526020818801526021818901527f54726561737572793a2043616e6e6f7420737761702048544b20666f722048546044820152604b60f81b6064820152608490fd5b8234610186575f36600319011261018657602090515f8152f35b509034610186578060031936011261018657602091610a44610f81565b90355f525f8352815f209060018060a01b03165f52825260ff815f20541690519015158152f35b5034610186578160031936011261018657610a84610f97565b9160243592610a91611f06565b6001600160a01b031691610aa68315156110ca565b610ab1841515611116565b8151906323b872dd60e01b5f52338152306024528460445260205f60648180885af160015f5114811615610b45575b8284525f60605215610b31575050807ff5681f9d0db1b911ac18ee83d515a1cf1051853a9eae418316a2fdf7dea427c591519384524260208501523393a360015f8051602061214783398151915255005b635274afe760e01b82528101839052602490fd5b60018115166104b357843b15153d151616610ae0565b5034610186578160031936011261018657610b74610f97565b91610b7d610f81565b5f80525f602052815f20335f5260205260ff825f20541615610c73576001600160a01b0381811694908515610c3057811693858514610bf6575091610bee602092610be87f93c8fc8f4dbec7bd8c38f304f82e6632181c9225284b4fae152c7f47a32f9b5595611dfe565b50611cea565b5051428152a3005b606490602085519162461bcd60e51b8352820152601460248201527354726561737572793a2053616d652072656c617960601b6044820152fd5b835162461bcd60e51b8152602081870152601760248201527f54726561737572793a20496e76616c69642072656c61790000000000000000006044820152606490fd5b815163e2517d3f60e01b815233818501525f6024820152604490fd5b509034610186578060031936011261018657610ca9610f81565b90336001600160a01b03831603610cc557506100209135611e94565b5163334bd91960e11b81529050fd5b5090346101865780600319360112610186576100209135610cf8600161055d610f81565b611d88565b8234610186575f36600319011261018657517f00000000000000000000000000000000000000000000000000000000000000006001600160a01b03168152602090f35b50903461018657602036600319011261018657602091355f525f82526001815f2001549051908152f35b50346101865760209060206003193601126101865780359067ffffffffffffffff92838311610186573660238401121561018657828201359384116101865760246005933660248760051b8301011161018657610dc5611c08565b5f5b868110610dfa577f05ed49d3781912581646bb5a1d8c03061183ef38aef8eb9a2d09e6012eb60e916020888a51908152a1005b80861b8201830135906001600160a01b0382168083036101865785610e5493610e24831515610fdb565b8b5163248a35ef60e11b8152308a82019081526001600160a01b0390921660208301529485918291604090910190565b03815f6101675af1928315610ed657600193610e86915f91610eb9575b5060070b60168114908115610eb05750611087565b7fb4e8714fe5d0fa71a867742c95669ce08278972d060286e23b214a21690e90965f80a201610dc7565b9050155f61030a565b610ed09150883d8a1161036757610359818361104c565b5f610e71565b8a513d5f823e3d90fd5b8234610186575f36600319011261018657602090515f805160206121278339815191528152f35b8234610186575f3660031901126101865760015490516001600160a01b039091168152602090f35b823461018657602036600319011261018657359063ffffffff60e01b821680920361018657602091637965db0b60e01b8114908115610f70575b5015158152f35b6301ffc9a760e01b14905083610f69565b602435906001600160a01b038216820361018657565b600435906001600160a01b038216820361018657565b9181601f840112156101865782359167ffffffffffffffff8311610186576020838186019501011161018657565b15610fe257565b60405162461bcd60e51b8152602060048201526011602482015270054726561737572793a20746f6b656e3d3607c1b6044820152606490fd5b610120810190811067ffffffffffffffff82111761103857604052565b634e487b7160e01b5f52604160045260245ffd5b90601f8019910116810190811067ffffffffffffffff82111761103857604052565b9081602091031261018657518060070b81036101865790565b1561108e57565b60405162461bcd60e51b8152602060048201526014602482015273121514c8185cdcdbd8da585d194819985a5b195960621b6044820152606490fd5b156110d157565b60405162461bcd60e51b815260206004820152601760248201527f54726561737572793a20496e76616c696420746f6b656e0000000000000000006044820152606490fd5b1561111d57565b60405162461bcd60e51b8152602060048201526015602482015274151c99585cdd5c9e4e8816995c9bc8185b5bdd5b9d605a1b6044820152606490fd5b1561116157565b60405162461bcd60e51b815260206004820152601a60248201527f54726561737572793a204578706972656420646561646c696e650000000000006044820152606490fd5b156111ad57565b60405162461bcd60e51b81526020600482015260166024820152750a8e4cac2e6eae4f2744092dcecc2d8d2c840e0c2e8d60531b6044820152606490fd5b156111f257565b60405162461bcd60e51b815260206004820152601e60248201527f54726561737572793a20496e73756666696369656e742062616c616e636500006044820152606490fd5b1561123e57565b60405162461bcd60e51b815260206004820152601a60248201527f54726561737572793a20556e65787065637465642076616c75650000000000006044820152606490fd5b1561128a57565b60405162461bcd60e51b815260206004820152601a60248201527f54726561737572793a20496e76616c696420746f6b656e4f75740000000000006044820152606490fd5b156112d657565b60405162461bcd60e51b8152602060048201526015602482015274151c99585cdd5c9e4e8816995c9bc81b5a5b93dd5d605a1b6044820152606490fd5b600682101561131f5752565b634e487b7160e01b5f52602160045260245ffd5b92919267ffffffffffffffff8211611038576040519161135d601f8201601f19166020018461104c565b829481845281830111610186578281602093845f960137010152565b9190826040910312610186576020825192015190565b602081528151600681101561131f576020820152602082015160018060a01b038091166040830152604083015192610120908160608501528451928361014086015283602061016097018787015e5f8685870101526060820151166080850152608081015160a085015260a081015160c085015260c081015160e085015260e0810151906101009182860152015190830152601f8019910116010190565b1561143457565b60405162461bcd60e51b815260206004820152601d60248201527f54726561737572793a20496e73756666696369656e74206f75747075740000006044820152606490fd5b1561148057565b60405162461bcd60e51b815260206004820152601860248201527f54726561737572793a205a65726f20616d6f756e744f757400000000000000006044820152606490fd5b156114cc57565b60405162461bcd60e51b81526020600482015260146024820152732a3932b0b9bab93c9d102d32b9379036b0bc24b760611b6044820152606490fd5b1561150f57565b60405162461bcd60e51b8152602060048201526013602482015272151c99585cdd5c9e4e881bdd995c9cdc195b9d606a1b6044820152606490fd5b1561155157565b60405162461bcd60e51b81526020600482015260146024820152732a3932b0b9bab93c9d1029b0b6b2903a37b5b2b760611b6044820152606490fd5b93959291969097946115a14287101561115a565b6115ac8715156111a6565b6006851015938461131f5760028614809581159182611bfc575b818115611bec575b8115611bdc575b50611bcd575b61131f578615611ab6576001871461195a576001600160a01b039a8b16978815611915575f958783611908575b87901561184257508c8c16878115801590611833575b61162790611283565b61131f5788611821575b5061163d851515611116565b6116488615156112cf565b845b6040516370a0823160e01b81523060048201526020816024818f5afa80156117d7578f915f916117e2575b50611717935f9e8e6116ad8f9660409996611695826116ce9810156111eb565b6116a3816001541685611f35565b6001541683611fe5565b6116c28851966116bc8861101b565b87611313565b60208601523691611333565b8483015230606083015260808201528560a08201528460c08201528560e0820152866101008201528d600154169083519c8d80948193633d3b987b60e21b83526004830161138f565b03925af19485156117d7575f995f966117b0575b5061131f575f805160206121678339815191529661178096916117a5575b501561178657505061175d9082101561142d565b955b60408051958652602086018890524290860152339516939081906060820190565b0390a490565b61179f92506117979084101561142d565b861115611508565b9561175f565b60049150145f611749565b9095506117cd91995060403d60401161096f5761095e818361104c565b989098945f61172b565b6040513d5f823e3d90fd5b9293949150506020823d602011611819575b816118016020938361104c565b81010312610186579051909291908e90611717611675565b3d91506117f4565b61182d908b141561154a565b5f611631565b5061131f578760048b1461161e565b61131f57600389148080156118fb575b156118b6578d8d16908882158015906118a7575b61186f90611283565b61131f57611895575b506118848515156114c5565b61188f841515611479565b8461164a565b6118a1908b141561154a565b5f611878565b5061131f578860058c14611866565b60405162461bcd60e51b815260206004820152601a60248201527f54726561737572793a20556e737570706f72746564206b696e640000000000006044820152606490fd5b505f975060058a14611852565b505f965060048914611608565b60405162461bcd60e51b815260206004820152601960248201527f54726561737572793a20496e76616c696420746f6b656e496e000000000000006044820152606490fd5b509850966001600160a01b039081169692958895939450611a1a939250611982881515611283565b61198d8a1515611479565b6119973415611237565b6119a28615156114c5565b6119ae864710156111eb565b6119d260409788966119c58851966116bc8861101b565b5f60208701523691611333565b8584015230606084015260808301525f60a08301528860c08301528460e08301525f61010083015260015416908351978880948193633d3b987b60e21b83526004830161138f565b03925af1948515611aac575f945f96611a6c575b5091611a4f5f80516020612167833981519152926117975f9589101561142d565b519384526020840185905242604085015233938060608101611780565b8391965061179795505f8051602061216783398151915292611a9e611a4f925f963d861161096f5761095e818361104c565b989097509294509250611a2e565b82513d5f823e3d90fd5b5050975092611b669194959250879660018060a01b0380911696611adb881515611283565b611ae53415611237565b611af0891515611116565b611afc894710156111eb565b611b078615156112cf565b611b1e60409788966119c58851966116bc8861101b565b8584015230606084015260808301528760a08301525f60c08301528760e08301528461010083015260015416908351988980948193633d3b987b60e21b83526004830161138f565b03925af1948515611aac575f95611b95575b505f91611a4f5f805160206121678339815191529287101561142d565b5f8051602061216783398151915291955091611a4f611bc15f94833d851161096f5761095e818361104c565b90509692505091611b78565b611bd73415611237565b6115db565b905061131f5760058814816115d5565b905061131f5760048814816115ce565b50505f600388146115c6565b335f9081527fc39f11a9300b508470eaed31f5842ba08c93181bcbe6a7fe34039aa7f2b8074260205260409020547f3b5d4cc60d3ec3516ee8ae083bd60934f6eb2a6c54b1229985c41bfb092b26039060ff1615611c635750565b6044906040519063e2517d3f60e01b82523360048301526024820152fd5b335f9081527f8a82f9e0504fbbd4e27d52a5bf0121b2797f48988a09544f7c17949deb596bc460205260409020545f805160206121278339815191529060ff1615611c635750565b805f525f60205260405f20335f5260205260ff60405f20541615611c635750565b6001600160a01b03165f8181527f8a82f9e0504fbbd4e27d52a5bf0121b2797f48988a09544f7c17949deb596bc460205260409020545f80516020612127833981519152919060ff16611d8257815f525f60205260405f20815f5260205260405f20600160ff1982541617905533917f2f8788117e7eff1d82e926ec794901d17c78024a50270940304540a733656f0d5f80a4600190565b50505f90565b90815f525f60205260405f209060018060a01b031690815f5260205260ff60405f205416155f14611d8257815f525f60205260405f20815f5260205260405f20600160ff1982541617905533917f2f8788117e7eff1d82e926ec794901d17c78024a50270940304540a733656f0d5f80a4600190565b6001600160a01b03165f8181527f8a82f9e0504fbbd4e27d52a5bf0121b2797f48988a09544f7c17949deb596bc460205260409020545f80516020612127833981519152919060ff1615611d8257815f525f60205260405f20815f5260205260405f2060ff19815416905533917ff6391f5c32d9c69d2a47ea670b442974b53935d1edc7fd64eb21e047a839171b5f80a4600190565b90815f525f60205260405f209060018060a01b031690815f5260205260ff60405f2054165f14611d8257815f525f60205260405f20815f5260205260405f2060ff19815416905533917ff6391f5c32d9c69d2a47ea670b442974b53935d1edc7fd64eb21e047a839171b5f80a4600190565b5f805160206121478339815191526002815414611f235760029055565b604051633ee5aeb560e01b8152600490fd5b60405163095ea7b360e01b5f9081526001600160a01b0380851660045260248290529293919060209060448180885af19060015f5114821615611fd6575b60405215611f8057505050565b611f8a81846120ca565b15611fbc57611f9990836120ca565b15611fa2575050565b604051635274afe760e01b81529116600482015260249150fd5b604051635274afe760e01b81528284166004820152602490fd5b90843b15153d15161690611f73565b6040519263095ea7b360e01b93845f5260018060a01b039384811691826004528360245260205f60448180895af19060015f51148216156120bb575b60405215612032575b505050505050565b61203c90846120ca565b156120a157604051945f5260045260245260205f60448180855af160015f511481161561208b575b83604052156120755780808061202a565b635274afe760e01b835216600482015260249150fd5b60018115166108f757813b15153d151616612064565b604051635274afe760e01b81528484166004820152602490fd5b90853b15153d15161690612021565b60405163095ea7b360e01b5f9081526001600160a01b03909316600452602483905290929160209060448180875af19260015f511484161561210d575b50604052565b600184929415166108f7573b15153d151616915f61210756fe077a1d526a4ce8a773632ab13b4fbbf1fcc954c3dab26cd27ea0e2a6750da5d79b779b17422d0df92223018b32b4d1fa46e071723d6817e2486d003becc55f00d008db8af2b70a4c666c8f38a2a22e7012653ea543fa986a4ee04a1f7ad89247a2646970667358221220357b5ad8f84aaf4537cd7317e9192434cf69f92388acd37d4aada3536062de8a64736f6c634300081900332f8788117e7eff1d82e926ec794901d17c78024a50270940304540a733656f0dad3228b676f7d3cd4284a5443f17f1962b36e491b30a40b2405849e597ba5fb5",
    "linkReferences": {}
  },
  "methodIdentifiers": {
    "DAO_ROLE()": "e9c26518",
    "DEFAULT_ADMIN_ROLE()": "a217fddf",
    "HTK_TOKEN()": "27b57cdd",
    "RELAY_ROLE()": "04421823",
    "adapter()": "03eadcfc",
    "associateTreasuryToToken(address)": "dffb2100",
    "batchAssociateTreasuryToTokens(address[])": "22a62490",
    "deposit(address,uint256)": "47e7ef24",
    "executeBuybackAndBurn(address,bytes,uint256,uint256,uint256)": "a930b738",
    "executeSwap(uint8,address,address,bytes,uint256,uint256,uint256,uint256)": "f83850fd",
    "getBalance(address)": "f8b2cb4f",
    "getRoleAdmin(bytes32)": "248a9ca3",
    "grantRole(bytes32,address)": "2f2ff15d",
    "hasRole(bytes32,address)": "91d14854",
    "renounceRole(bytes32,address)": "36568abe",
    "revokeRole(bytes32,address)": "d547741f",
    "setAdapter(address)": "ab1da79c",
    "supportsInterface(bytes4)": "01ffc9a7",
    "updateRelay(address,address)": "382ed853",
    "withdraw(address,address,uint256)": "d9caed12"
  },
  "id": 47
}